:100000000C945D000C9485000C9485000C94850084
:100010000C9485000C9485000C9485000C9485004C
:100020000C9485000C9485000C9485000C9485003C
:100030000C9485000C9485000C9485000C9485002C
:100040000C94DD020C9485000C94AB020C94850298
:100050000C9485000C9485000C9485000C9485000C
:100060000C9485000C94850000000008000201003B
:100070000003040700000000000000000000000072
:10008000250028002B0000000000240027002A0083
:10009000040404040404040402020202020203032E
:1000A0000303030301020408102040800102040836
:1000B0001020010204081020540311241FBECFEFAA
:1000C000D8E0DEBFCDBF11E0A0E0B1E0ECEDFAE09A
:1000D00002C005900D92A036B107D9F722E0A0E644
:1000E000B1E001C01D92AB32B207E1F710E0CDE5FF
:1000F000D0E004C02197FE010E946605CC35D107EF
:10010000C9F70E94E6030C946C050C940000AF92B2
:10011000BF92CF92DF92EF92FF920F931F93CF93F4
:10012000DF936C017B018B01040F151FEB015E0156
:10013000AE18BF08C017D10759F06991D601ED91EB
:10014000FC910190F081E02DC6010995892B79F78A
:10015000C501DF91CF911F910F91FF90EF90DF903C
:10016000CF90BF90AF900895FC01538D448D252F03
:1001700030E0842F90E0821B930B541710F0CF9641
:10018000089501970895FC01918D828D981761F073
:10019000A28DAE0FBF2FB11D5D968C91928D9F5F8A
:1001A0009F73928F90E008958FEF9FEF0895FC0169
:1001B000918D828D981731F0828DE80FF11D858D1C
:1001C00090E008958FEF9FEF0895FC01918D228DAF
:1001D000892F90E0805C9F4F821B91098F73992734
:1001E00008958AE691E00E94E50021E0892B09F458
:1001F00020E0822F089580E090E0892B29F00E9472
:10020000F10081110C9400000895FC01A48DA80F49
:10021000B92FB11DA35ABF4F2C91848D90E0019648
:100220008F739927848FA689B7892C93A089B18968
:100230008C91837080648C93938D848D981306C009
:100240000288F389E02D80818F7D80830895EF926D
:10025000FF920F931F93CF93DF93EC0181E0888F80
:100260009B8D8C8D98131AC0E889F989808185FF50
:1002700015C09FB7F894EE89FF896083E889F989F2
:1002800080818370806480839FBF81E090E0DF91F4
:10029000CF911F910F91FF90EF900895F62E0B8D47
:1002A00010E00F5F1F4F0F731127E02E8C8D8E1102
:1002B0000CC00FB607FCFACFE889F989808185FF69
:1002C000F5CFCE010E940501F1CFEB8DEC0FFD2F94
:1002D000F11DE35AFF4FF0829FB7F8940B8FEA8924
:1002E000FB8980818062CFCFCF93DF93EC01888D33
:1002F0008823B9F0AA89BB89E889F9898C9185FDA1
:1003000003C0808186FD0DC00FB607FCF7CF8C912E
:1003100085FFF2CF808185FFEDCFCE010E940501E0
:10032000E9CFDF91CF91089590E0FC01E859FF4FAC
:100330002491FC01EC55FF4F3491FC01E057FF4F35
:10034000E491EE23C9F0222339F0233001F1A8F41F
:10035000213019F1223029F1F0E0EE0FFF1FE458AF
:10036000FF4FA591B4918FB7F894EC91611126C01D
:1003700030953E233C938FBF08952730A9F0283055
:10038000C9F0243049F7809180008F7D03C08091AF
:1003900080008F7780938000DFCF84B58F7784BD16
:1003A000DBCF84B58F7DFBCF8091B0008F778093BA
:1003B000B000D2CF8091B0008F7DF9CF3E2BDACF45
:1003C0003FB7F8948091650190916601A091670113
:1003D000B091680126B5A89B05C02F3F19F0019682
:1003E000A11DB11D3FBFBA2FA92F982F8827BC018F
:1003F000CD01620F711D811D911D42E0660F771FB7
:10040000881F991F4A95D1F708958F929F92AF92B6
:10041000BF92CF92DF92EF92FF924B015C010E945C
:10042000E0016B017C010E94E0016C197D098E09DD
:100430009F09683E734081059105A8F321E0821A67
:100440009108A108B10888EEC80E83E0D81EE11C0F
:10045000F11C81149104A104B10429F7FF90EF90DD
:10046000DF90CF90BF90AF909F908F900895CF93E3
:10047000DF93EC0160E088810E94940160E08A8152
:100480000E94940161E08C81DF91CF910C949401E2
:10049000CF93DF93EC0160E088810E94940161E0DA
:1004A0008A810E94940160E08C81DF91CF910C944D
:1004B0009401CF93DF93EC0161E088810E94940165
:1004C00060E08A810E94940160E08C81DF91CF918D
:1004D0000C949401FC0101900020E9F73197AF01E1
:1004E000481B590BBC018AE691E00C948700CF931E
:1004F000DF930E946A02EC0184E191E00E946A02AB
:100500008C0F9D1FDF91CF9108951F920F920FB610
:100510000F9211242F933F934F935F936F937F9389
:100520008F939F93AF93BF93EF93FF938AE691E0EE
:100530000E940501FF91EF91BF91AF919F918F9123
:100540007F916F915F914F913F912F910F900FBECF
:100550000F901F9018951F920F920FB60F921124B3
:100560002F938F939F93EF93FF93E0917A01F091F4
:100570007B018081E0918001F091810182FD1BC0AF
:100580009081809183018F5F8F7320918401821706
:1005900041F0E0918301F0E0E659FE4F958F8093A2
:1005A0008301FF91EF919F918F912F910F900FBE3B
:1005B0000F901F9018958081F4CF1F920F920FB665
:1005C0000F9211242F933F938F939F93AF93BF93D9
:1005D0008091610190916201A0916301B0916401E9
:1005E0003091600123E0230F2D3758F50196A11DAE
:1005F000B11D209360018093610190936201A093EB
:100600006301B09364018091650190916601A091AE
:100610006701B09168010196A11DB11D809365012C
:1006200090936601A0936701B0936801BF91AF9169
:100630009F918F913F912F910F900FBE0F901F9020
:10064000189526E8230F0296A11DB11DD2CF90E088
:10065000FC01EC55FF4F249180579F4FFC01849182
:10066000882399F090E0880F991FFC01EA57FF4F0B
:10067000A591B491FC01E458FF4F859194918FB7F7
:10068000F894EC91E22BEC938FBF0895CF93DF9316
:10069000EC0188810E9427038A810E9427038C81B4
:1006A000DF91CF910C942703CF93DF93EAE6F1E03B
:1006B0001382128288EE93E0A0E0B0E084839583F9
:1006C000A683B78386E091E09183808385EC90E0F8
:1006D0009587848784EC90E09787868780EC90E00C
:1006E000918B808B81EC90E0938B828B82EC90E0FD
:1006F000958B848B86EC90E0978B868B118E128E77
:10070000138E148EE5E2F2E08AE090E0918380831C
:1007100089E090E09383828388E090E095838483EE
:10072000CF010E944603EFE1F2E087E090E0918381
:10073000808386E090E09383828385E090E09583D8
:100740008483CF010E944603E9E1F2E084E090E077
:100750009183808383E090E09383828382E090E0C2
:1007600095838483CF010E944603E3E1F2E08DE0AC
:1007700090E091838083C3E1D0E0D383C2838EE095
:1007800090E095838483CF010E944603EDE0F2E080
:100790008FE090E091838083D383C28380E190E0F7
:1007A00095838483CF010E944603E7E0F2E08BE06B
:1007B00090E091838083D383C2838CE090E0958323
:1007C0008483CF01DF91CF910C944603789484B554
:1007D000826084BD84B5816084BD85B5826085BD3D
:1007E00085B5816085BD80916E00816080936E00CB
:1007F00010928100809181008260809381008091BD
:10080000810081608093810080918000816080936D
:1008100080008091B10084608093B1008091B0002D
:1008200081608093B00080917A00846080937A0028
:1008300080917A00826080937A0080917A00816052
:1008400080937A0080917A00806880937A00109279
:10085000C100E0917A01F0917B0182E08083E09118
:100860007601F09177011082E0917801F0917901A1
:100870008FEC808310928201E0917E01F0917F01E4
:1008800086E08083E0917C01F0917D018081806130
:100890008083E0917C01F0917D018081886080837C
:1008A000E0917C01F0917D01808180688083E091FE
:1008B0007C01F0917D0180818F7D808387E191E0D3
:1008C0000E946A0203E010E080E0E82E80E0F82E4B
:1008D0008AE691E00E94E500181619067CF58AE682
:1008E00091E00E94C300C82F80936901682F8AE6B7
:1008F00091E00E942701C053CA3000F58DE191E0DC
:100900000E946A02609169018AE691E00E942701D3
:1009100084E191E00E946A0285E292E00E9459021D
:100920008FE192E00E94590289E192E00E9459020F
:1009300068EB7BE080E090E00E940502809100017E
:10094000909101018130910509F048C08FE291E05A
:100950000E94770285E292E00E9459028FE192E0C4
:100960000E94370289E192E00E94590289E192E0F7
:100970000E94480283E192E00E9437026CE271E03B
:1009800080E090E00E94050283E192E00E9459021B
:100990008FE192E00E94480289E192E00E943702D2
:1009A00068E572E080E090E00E940502809100011D
:1009B000909101010196B8010E943E0590930101BA
:1009C00080930001E114F10409F482CF0E94F10048
:1009D000882309F47DCF0E9400007ACF029739F571
:1009E0008FE391E00E94770285E292E00E94480244
:1009F0008FE192E00E9459028DE092E00E9437025E
:100A000068E572E080E090E00E9405028DE092E0EF
:100A10000E94590285E292E00E94370289E192E049
:100A20000E94480264E873E080E090E0BDCF8FE46C
:100A300091E00E9477028FE192E00E9459028FE1DB
:100A400092E00E94480289E192E00E94590287E008
:100A500092E00E94370268E572E080E090E00E9438
:100A6000050287E092E00E94590285E292E00E942E
:100A700048028FE192E00E943702D4CF97FB072E05
:100A800016F4009407D077FD09D00E94520507FCA8
:100A900005D03EF4909581959F4F0895709561958E
:100AA0007F4F0895AA1BBB1B51E107C0AA1FBB1FA4
:100AB000A617B70710F0A61BB70B881F991F5A95EA
:100AC000A9F780959095BC01CD010895EE0FFF1F09
:0C0AD0000590F491E02D0994F894FFCFFC
:100ADC0001000000000027018700B4007401E5004C
:100AEC00C300D7000D0A0068656C6C6F004E756D05
:100AFC006265722072656365697665643A2000737D
:100B0C00657120312061637469766174656400736A
:100B1C006571203220616374697661746564007359
:100B2C0065712033206163746976617465640000BB
:00000001FF
